{
  "contractName": "Toggle",
  "abi": [
    {
      "inputs": [],
      "stateMutability": "nonpayable",
      "type": "constructor"
    },
    {
      "inputs": [],
      "name": "switchTheLight",
      "outputs": [],
      "stateMutability": "nonpayable",
      "type": "function"
    },
    {
      "inputs": [],
      "name": "getState",
      "outputs": [
        {
          "internalType": "bool",
          "name": "",
          "type": "bool"
        }
      ],
      "stateMutability": "view",
      "type": "function",
      "constant": true
    }
  ],
  "bytecode": "0x608060405260008060006101000a81548160ff02191690831515021790555034801561002a57600080fd5b5033600060016101000a81548173ffffffffffffffffffffffffffffffffffffffff021916908373ffffffffffffffffffffffffffffffffffffffff16021790555061011b8061007b6000396000f3fe6080604052348015600f57600080fd5b506004361060325760003560e01c80631865c57d146037578063915d5862146057575b600080fd5b603d605f565b604051808215151515815260200191505060405180910390f35b605d6075565b005b60008060009054906101000a900460ff16905090565b600015156000809054906101000a900460ff161515141560ad5760016000806101000a81548160ff02191690831515021790555060e3565b600115156000809054906101000a900460ff161515141560e25760008060006101000a81548160ff0219169083151502179055505b5b56fea26469706673582212200f8e672e7c9e959025d789a2f06df06d5c249c0dfc3b6a321f273d3f491e680064736f6c63430006020033",
  "source": "pragma solidity ^0.6.0;\r\n\r\ncontract Toggle {\r\n    bool lightState = false;\r\n    address owner;\r\n    constructor() public {\r\n        owner = msg.sender;\r\n    }\r\n    // modifier onlyOwner(){\r\n    //     require (msg.sender == owner);\r\n    //     _;\r\n    // }\r\n    function switchTheLight() public { // onlyOwner\r\n        if (lightState == false){\r\n            lightState = true;\r\n        } else if (lightState == true) {\r\n            lightState = false;\r\n        }\r\n    }\r\n    function getState() public view returns(bool) {\r\n        return lightState;\r\n    }\r\n}",
  "sourcePath": "C:/Users/Lenovo/Documents/Zero To Master Projects/Challanges/voice_steroids/src/ethereum/contracts/Toggle.sol",
  "compiler": {
    "name": "solc",
    "version": "0.6.2+commit.bacdbe57.Emscripten.clang"
  },
  "schemaVersion": "3.0.20",
  "updatedAt": "2020-01-31T12:58:36.338Z",
  "networkType": "ethereum",
  "devdoc": {
    "methods": {}
  },
  "userdoc": {
    "methods": {}
  }
}